:100000000AC300002EC300000C94E90C0C94210DCF
:100010000C9469100C94A1100C949F240C94D2247D
:100020000C9405250C9438251CC300001AC300004D
:1000300018C300000C9470110C946B250C94A3252C
:100040000C94DB250C9413260C944B260C948326DD
:100050000C94BB260C94F3260C942B270C9463274A
:1000600000C30000FEC20000FCC20000FAC2000093
:100070000C94140BF6C200000C94C80AF2C20000E3
:10008000F0C20000EEC200000C94790C0C94B10C8C
:10009000E8C20000E6C20000E4C200000C944B235A
:1000A0000C9488230C94C5230C9402240C94C90D41
:1000B0000C94010ED6C200000C94D4110C94CB29E0
:1000C0000C94032A0C943B2A0C94732A0C94AB2AAC
:1000D0000C94E32A0C941B2B0C94532B0C948B2B19
:1000E0000C94C32BBEC20000BCC20000BAC2000008
:1000F000B8C20000BCC5000004C60000B2C20000C7
:100100000C94590D0C94910D0C94090C0C94410C09
:10011000A8C20000A6C20000A4C200000C9457228E
:100120000C9494220C94D1220C940E239AC20000B9
:100130000C94A2110C949B270C94D3270C940B289D
:100140000C9443280C947B280C94B3280C94EB2833
:100150000C9423290C945B290C94932982C20000EF
:1001600080C200007EC200007CC200007AC2000093
:1001700078C2000076C200000C94F90F0C94311084
:100180000C94A90E0C94E10E0C94190F0C94510FC1
:100190000C94890F0C94C10F64C2000062C200006D
:1001A0000C94390E0C94710E5CC200000C94061273
:1001B0000C94FB2B0C94332C0C946B2C0C94A32CD4
:1001C0000C94DB2C0C94132D0C944B2D0C94832D40
:1001D0000C94BB2D0C94F32D44C2000042C20000CD
:1001E00040C200003EC200000C94C80B3AC200009E
:1001F00038C200000C947D200C944021F303EB03E3
:10020000ED03F303EB03ED03ED03F6033304F10316
:10021000F103F103F103F103F103EF03EF03411BDA
:10022000441B471B4A1B4D1B501B531B370210001E
:10023000000001062032037833665F6578616D70D7
:100240006C655F636D645F31006578616D706C65CE
:100250005F726573706F6E73655F31001206010027
:1002600000000A8720AC09CF0302000000047B20B5
:10027000CE09E40403000000027520E009E3030452
:10028000000000017220EB09240506000000026C4A
:1002900020CD0631050701692000000029073E0531
:1002A000080000000166201005510409000000014B
:1002B00063201A0550050F000000016020F6096256
:1002C00005F00000000000002C0AC103F10000004E
:1002D00000000049092704F2025A2001572064094E
:1002E0007103F3025120014E2078094E03F40248B5
:1002F000200242207D0AFA03F5013F2002392095B1
:100300000A5D03F6033020032720B60A0804F7022B
:100310002120031820A40ADA04FA000000000000DB
:1003200003098303FB01152001122006090505FCC2
:10033000000000010F203109F604FD000000010C4F
:10034000203D091505FE00000001092028097772EB
:100350006974655F72656769737465720077726945
:1003600074655F72656769737465725F62697473DF
:100370000077726974655F656570726F6D5F627931
:1003800074650077726974655F6372630077616694
:1003900065725F6E756D6265720073797374656DF9
:1003A0005F7374617475730073746F7265645F63F7
:1003B00072630073746172745F61646472657373F5
:1003C00000726573746172745F786D656761007245
:1003D0006571756573745F76657273696F6E5F6E54
:1003E000756D00726571756573745F70726F6A65A3
:1003F00063745F737472696E6700726561645F72C3
:100400006567697374657200726561645F726567C0
:1004100069737465725F6269747300726561645FA9
:100420006C656E67746800726561645F65657072A3
:100430006F6D0070726F6A6563745F737472696E5A
:10044000670070726F6A6563745F7374617475734B
:1004500000706F705F6576656E7400706C616365C7
:10046000686F6C646572007061746368006E756DAE
:100470006265725F6F665F636F6D6D616E6473005E
:100480006D696E6F72006D616A6F72006C6F745F80
:100490006E756D6265725F35006C6F745F6E756D41
:1004A0006265725F34006C6F745F6E756D62657249
:1004B0005F33006C6F745F6E756D6265725F3200E2
:1004C0006C6F745F6E756D6265725F31006C6F7416
:1004D0005F6E756D6265725F300069737375655F1D
:1004E000637263006765745F73797374656D5F73BE
:1004F0007461747573006765745F73746F7265649B
:100500005F637263006765745F70726F676D656DBE
:100510005F637263006765745F6372635F737461C6
:10052000747573006765745F636D645F6C69737481
:10053000006765745F636D645F696E666F00676511
:10054000745F6275666665725F737461747573005B
:100550006765745F61737369676E65645F6E616D13
:100560006500656E7465725F6466755F6D6F646566
:1005700000656570726F6D5F636F6E74656E740099
:100580004465766963655F49440064617461006332
:100590007263006372635F73746174757300636F79
:1005A0006F7264696E6174655F5900636F6F726426
:1005B000696E6174655F5800636F6D70696C65008A
:1005C000636F6D6D616E645F6C69737400636F6DF2
:1005D0006D616E645F636F6465006279746500626B
:1005E0007974655F7772697474656E006269746DA1
:1005F00061736B0061737369676E65645F6E616DD3
:1006000065006170705F637263006164647265733A
:10061000730061636B0011241FBECFEFCDBFDFE31A
:10062000DEBF00E00CBF18BE19BE1ABE1BBE14E22E
:10063000A0E0B0E2EEEDF6E600E00BBF02C00790EE
:100640000D92A833B107D9F71BBE23E3A8E3B4E2A8
:1006500001C01D92A335B207E1F70E94FE300C9451
:100660006D33CECC85E5FB01808381E008958F92C8
:100670009F92AF92BF92FF920F931F93CF93DF93FE
:10068000DC0140913A2450913B24C0913824D09110
:1006900039244C175D0719F58AEA8C938FEF119670
:1006A0008C93119781E012968C9312978BEB139693
:1006B0008C9384E099C1019697704817590781F48B
:1006C0008AEA8C938FEF11968C93119781E01296A2
:1006D0008C9312978BEB13968C9384E085C1CE019B
:1006E000FC01E45CFB4D20812A3A29F701969770C2
:1006F0004817590779F48AEA8C938FEF11968C93F7
:10070000119781E012968C9312978BEB13968C9332
:1007100084E06AC101969C0137704217530779F44F
:100720008AEA8C938FEF11968C93119781E0129641
:100730008C9312978BEB13968C9384E055C12F5FAB
:100740003F4F37704217530779F48AEA8C938FEF43
:1007500011968C93119781E012968C9312978BEBE4
:1007600013968C9384E040C1F901E45CFB4D7081E9
:100770002F5F3F4F3770772309F4D9C042175307D3
:1007800039F0F12C04E010E012C02417350779F499
:100790008AEA8C938FEF11968C93119781E01296D1
:1007A0008C9312978BEB13968C9384E01DC1F90107
:1007B000E45CFB4D90812F5F3F4F3770892E912C69
:1007C000F4013197E131F10560F48827E250FF4FE1
:1007D0008F4F0C94B631E2E007C0E4E005C0E8E0DA
:1007E00003C0E0E001C0E1E0983071F54217530723
:1007F00049F00E5F1F4FF901E45CFB4D80818111D0
:100800001CC017C08AEA8C938FEF11968C931197B6
:1008100081E012968C9312978BEB13968C9384E065
:10082000E3C00F5F1F4FF901E45CFB4D8081811134
:1008300004C02F5F3F4F377076C02F5F3F4F377038
:100840004217530771F7DECF993069F0C80101965E
:100850000E2F10E00115110509F462C0421753076D
:1008600009F054C044C04217530779F48AEA8C93C4
:100870008FEF11968C93119781E012968C931297BB
:100880008BEB13968C9384E0AFC0C8010296F901FC
:10089000E45CFB4DE0812F5F3F4F3770EE2309F49E
:1008A00041C04217530799F403C042175307A1F4FC
:1008B0008AEA8C938FEF11968C93119781E01296B0
:1008C0008C9312978BEB13968C9384E08DC00D5F05
:1008D0001F4FE1500E0F111D01962F5F3F4F3770D4
:1008E0000817190711F71FC04217530789F48AEA3E
:1008F0008C938FEF11968C93119781E012968C93C5
:1009000012978BEB13968C9384E06EC0080F191F1F
:1009100001962F5F3F4F37700817190729F703C05B
:100920008C0101C08C01F3947F112FCF02C004E031
:1009300010E04217530779F48AEA8C938FEF1196EF
:100940008C93119781E012968C9312978BEB1396F0
:100950008C9384E049C0F901E45CFB4D80818B3BC2
:1009600079F08AEA8C938FEF11968C93119781E03E
:1009700012968C9312978BEB13968C9384E034C071
:100980000F5F1F4F70E06017710720F00115110510
:1009900081F41EC08AEA8C938FEF11968C93119785
:1009A00082E012968C9312978BEB13968C9384E0D3
:1009B0001BC0FD019D01200F311FCE01845C9B4DAA
:1009C000DC018C9181932196D770E217F307A9F788
:1009D0008091382490913924800F911F97708093D3
:1009E000382490933924802FDF91CF911F910F915C
:1009F000FF90BF90AF909F908F90089580913A2480
:100A000090913B2420913824309139248217930708
:100A100018F0821B930B0895985F821B930B089527
:100A2000CF93DF93EB01EADF8883998382E0DF9144
:100A3000CF910895CF93DF93EB0160E8CE0101964B
:100A400016DE88838F5FDF91CF910895AF92BF92BA
:100A5000CF92DF92EF92FF920F931F93CF93DF938A
:100A60004091412D5091422D8A019A01280F391F42
:100A70004217530708F045C06C01EA01CD5BD24D27
:100A80007A0181E0E81AF108BE0180E090E00E945E
:100A9000031A1016110634F5FE013197808181305A
:100AA00041F488818A3AA1F4E0923F2CF092402CE4
:100AB0000FC08D3069F488818A3051F4E0923D2C6A
:100AC000F0923E2C1092412D1092422D81E01EC0DA
:100AD0000115F1E01F0731F41092412D1092422DC3
:100AE00080E014C00F5F1F4F2091412D3091422DA7
:100AF0002C0D3D1D21968FEFE81AF80A02171307F7
:100B000018F22093412D3093422D80E0DF91CF9158
:100B10001F910F91FF90EF90DF90CF90BF90AF901B
:100B20000895CF92DF92EF92FF921F93CF93DF93BE
:100B30001F921F92CDB7DEB79C01162FCDB6DEB641
:100B4000462F50E0CA0102966DB77EB7681B790B3D
:100B50006DBF7EBF8DB79EB701967C01809130221C
:100B600090913122EDB7FEB7818392838DB79EB706
:100B70000396B9010E94D8311E5F612FC7011AD3B5
:100B800089839A83612FC70101D162E0CE0101966A
:100B9000FDD062E08EE292E2F9D0CDBEDEBE0F90D3
:100BA0000F90DF91CF911F91FF90EF90DF90CF904A
:100BB0000895E0913D2CF0913E2CEF5BF24D808149
:100BC00091810895CF93DF9381E08093C707F1DF90
:100BD000EC0180913F2C9091402C60913D2C625013
:100BE000681B8D5B924DE6D2C817D90719F5809125
:100BF0003F2C9091402C40913D2C4250481B61E489
:100C00007CE28B5B924DEDD190913C2C911105C013
:100C1000682F81E49CE285DF17C0E1E4FCE28FEFFE
:100C2000808380913C2C818310923C2C62E0CF0128
:100C300078DF0AC0E1E4FCE280913222808381E027
:100C4000818362E0CF016DDFDF91CF9108950E9433
:100C5000D914882341F00E942014882321F0992779
:100C6000F5DE8111AFCF089580933C2C08951F923B
:100C70000F920FB60F92112408B60F9218BE09B644
:100C80000F9219BE0BB60F921BBE2F933F934F933B
:100C90005F936F937F938F939F93AF93BF93CF9304
:100CA000EF93FF936FD08091B10A887119F00E9481
:100CB000F7136AD0C091B00A0E946A15811104C06E
:100CC0000E94FD1362D004C08C2F90E00E94BB15DF
:100CD0005AD0FF91EF91CF91BF91AF919F918F919A
:100CE0007F916F915F914F913F912F910F900BBE2C
:100CF0000F9009BE0F9008BE0F900FBE0F901F906F
:100D000018951F920F920FB60F92112408B60F92EA
:100D100018BE09B60F9219BE0BB60F921BBE2F93C9
:100D20003F934F935F936F937F938F939F93AF9373
:100D3000BF93EF93FF930E94D914882331F020D002
:100D40000E9430158093B00A04C080E38093B30AF8
:100D500018D0FF91EF91BF91AF919F918F917F91AB
:100D60006F915F914F913F912F910F900BBE0F901C
:100D700009BE0F9008BE0F900FBE0F901F901895E0
:100D8000089508950895089508950895462F50E010
:100D9000BC0180E00C94BF150895CF93DF93EB0165
:100DA000EEE2F2E0E491E983EEE5F2E0DB01129697
:100DB00020E533E084918D933B962E173F07D1F7C2
:100DC00087E18883188E89E1DF91CF910895CF93D1
:100DD000DC0190EF960F903E30F4EEE2F2E0E49109
:100DE0006E1332C028C0EEE5F2E0E4916E1751F0C8
:100DF000E9E6F2E021E030E0C22FA9019491691305
:100E000013C003C040E050E0C0E08BE0849FB0011D
:100E1000859F700D1124645A7D4F4BE050E0CD0149
:100E20000E94BF318C2F13C02F5F3F4F3B9626315E
:100E3000310511F709C04BE050E06CE272E0CD01E2
:100E40000E94BF3180E003C081E00EDF8FEFCF91C1
:100E500008959F92AF92BF92CF92DF92EF92FF924E
:100E60000F931F93CF93DF938B01DC01CC916C2FF9
:100E70008CE291E3ACDF8F3F21F482E0F5DE80E08D
:100E800082C0F801C193CF01CCE2D1E368817981BE
:100E90000E94C831888199810E94CF3101969B8040
:100EA00091E0980FF801E90FF11D90826894BB243E
:100EB000B1F8B80E992059F1E12CF12CA12C6E015A
:100EC000D6011496ED91FC911597EE0DFF1D6081F2
:100ED0007181C8018B0D911D0E94C831F601C4813A
:100EE000D581CE0DDF1D888199810E94CF31019679
:100EF0008B0D9A81F801E80FF11D9083BB24B39408
:100F0000B80EA394F3E0EF0EF11C9A10D9CFA09085
:100F10003231F801EB0DF11DA082B394AA2091F1BA
:100F2000C0E0D0E0912C0F2EFCE2EF2EF1E3FF2E7B
:100F3000F02DD7011796ED91FC911897EC0FFD1F3E
:100F400060817181C8018B0D911D0E94C831F7012C
:100F5000C780D084CC0EDD1ED6018D919C910E945D
:100F6000CF3101968B0DF6019281F801E80FF11D4A
:100F70009083BB24B394B80E93942396A910D9CF31
:100F80008B2D01C08B2DDF91CF911F910F91FF9081
:100F9000EF90DF90CF90BF90AF909F9008950F9308
:100FA0001F93CF93DF93EB018A01682F81E291E3D6
:100FB0000EDF8F3F21F481E057DE80E00DC0E0912D
:100FC0002A31F0912B31309721F0B801CE011995DB
:100FD00003C082E049DE80E0DF91CF911F910F9145
:100FE0000895FC012191462F572FDA012D93AD0171
:100FF000BF01FC018081D3DF8F5F08958091442E73
:1010000008958091432E0895CF92DF92EF92FF9240
:101010001F93CF93DF93EC017B01142F69010E9492
:101020002B2EB601CE010E94A72E8E818C7F8E833F
:101030008E8181608E83EEA2FFA28881807F182B33
:101040001883DF91CF911F91FF90EF90DF90CF90A9
:1010500008958091373190913831A0913931B09114
:101060003A310196A11DB11D8093373190933831EB
:10107000A0933931B0933A310895E82FE695E6957B
:10108000E69590E2E99FF0011124FA5F3085282F60
:10109000277081E090E002C0880F991F2A95E2F73F
:1010A000932F982381E009F480E00895FF920F9335
:1010B0001F93CF93DF93C0EDD0E08881806C88834D
:1010C00082E2888300EC11E0F801F28488E38287F1
:1010D00061E08BEC91E00E94B730F801F2868981E3
:1010E00080FF06C0E0EDF0E00000818180FDFCCFD4
:1010F000DF91CF911F910F91FF900895E0EDF0E007
:1011000067817681858194810895CF93DF9300D0A4
:101110001F92CDB7DEB744E050E0BE016F5F7F4F56
:1011200080E090E00E94353069817A818B819C81DA
:101130002496CDBFDEBFDF91CF910895CF92DF928D
:10114000EF92FF92CF93DF9300D01F92CDB7DEB71F
:10115000D5DF6B017C0144E050E0BE016F5F7F4F43
:1011600080E090E00E94353081E049815A816B81B6
:101170007C814C155D056E057F0509F080E02496A5
:10118000CDBFDEBFDF91CF91FF90EF90DF90CF908A
:1011900008951092373110923831109239311092EF
:1011A0003A3129E238E041E060E07DE780E099E013
:1011B0002BCF089570E061157105B9F0DC01680F5F
:1011C000791F80E090E0ED91292F33278E27E82FBB
:1011D000F0E0EE0FFF1FED5CFD4D808191818227D5
:1011E0009327A617B70779F7089580E090E0089550
:1011F00004C061507109810991096115710581056A
:101200009105B9F7089552DF80E00895EF92FF92BB
:101210000F931F93CF93DF937B018C01C0E0D0E04D
:10122000F80161918F01CE010E9470302196C43087
:10123000D105B1F76ADFF7016083718382839383FD
:1012400084E0DF91CF911F910F91FF90EF9008956F
:10125000CF93DF93EB0172DF888381E0DF91CF9141
:101260000895CF93DF93EB0149DF688379838A8305
:101270009B8384E0DF91CF910895CF93DF93EB01BF
:1012800044DF688379838A839B8384E0DF91CF91F5
:101290000895CFE000EC17E0D1E0FD2EF801F582D3
:1012A00060E071E782E090E0A3DFF801D68360E0C0
:1012B00071E782E090E09CDFC15081F761E089E74F
:1012C00090E00E94B730FFCFCF93FC0180819181E5
:1012D000C281538122813381E62FF72F21933193ED
:1012E0004C2FBF010E94353081E08C0FCF910895C3
:1012F000EF92FF920F931F93CF93DF931F92CDB77F
:10130000DEB7FC019091452E9B3018F0FB01108256
:101310001AC09F5F9093452E8081918189839A8323
:101320009281E0ECF1E087858823ECF38B01E98082
:10133000F12C692FC7010E94703041E050E0B801E4
:10134000C7010E94353081E00F90DF91CF911F914E
:101350000F91FF90EF9008950F931F93CF93DF931A
:10136000CDB7DEB72B97CDBFDEBF8B01FB0110825F
:10137000CE0101960E94F82F8BE0FE013196D80134
:10138000119601900D928A95E1F78CE02B96CDBFD6
:10139000DEBFDF91CF911F910F9108958091352489
:1013A00090913624A0913724FB0180839183A283FE
:1013B00080913324909134248383948385E008952D
:1013C000CF93DF93EB011ADE88831BDE898382E0F3
:1013D000DF91CF91089585E494E5FB0180839183AB
:1013E00088E490E08283938384E00895CF92DF9233
:1013F000EF92FF920F931F93CF936B0160E070E029
:1014000081E00E94AD308823F9F0760100E010E021
:10141000C0E0CF5FB80181E00E94AD30F701819359
:101420007F01882329F00F5F1F4FCF3191F702C052
:10143000CF3139F4F601868D882329F0168E8FE19D
:1014400003C08C2F01C08FE1CF911F910F91FF90AE
:10145000EF90DF90CF900895FF920F931F93CF935B
:10146000DF93EB0182E00E94953086FD3DC00E9433
:10147000161A0E94441741E050E161E080EA96E0CC
:101480000E94EE2E81E08093A60641E050E061E0EC
:1014900080EC97E00E94EE2EC5E000EC17E0D1E072
:1014A000FD2EF801F58260E071E782E090E0A0DEB9
:1014B000F801D68360E071E782E090E099DEC150E8
:1014C00081F70E944122C0ECD7E011E0012F0D838B
:1014D00060E071E782E090E08BDE1E8360E071E700
:1014E00082E090E085DEF3CF8FEF888381E0DF91AB
:1014F000CF911F910F91FF900895CF93DF93FC013F
:10150000DB01C081D1818281888380818C9381813C
:1015100011968C9311970190F081E02D80811296A5
:101520008C9383E0DF91CF910895DC01FB018C91D6
:10153000808311968C91119781830D90BC91A02D81
:101540008C91828383E00895FC01DB01928180818C
:101550008C93818111968C9311970190F081E02DED
:101560008081892313968C9384E00895DC01129680
:101570005C911297ED91FC911197408113963C91EB
:101580003095342330832081252B2083DDCF0895AF
:101590001F920F920FB60F92112408B60F9218BE29
:1015A00009B60F9219BE0BB60F921BBE8F93AF9365
:1015B000BF93EF93FF9381E080934232E0913B3100
:1015C000F0913C3180E48183E0914132809140325E
:1015D000E81771F0A0913B31B0913C3181E08E0F62
:1015E00080934132F0E0E254FE4C80818C930CC039
:1015F00010924232E0913B31F0913C318381837F04
:10160000838381E080932607FF91EF91BF91AF9193
:101610008F910F900BBE0F9009BE0F9008BE0F90D8
:101620000FBE0F901F9018951F920F920FB60F923A
:10163000112408B60F9218BE0F9008BE0F900FBE6F
:101640000F901F901895CF93DF931F92CDB7DEB701
:101650009FB79983F8949981E091482EF0E0ED5B73
:10166000FD4C80838091482E8F3719F41092482EBC
:1016700005C08091482E8F5F8093482E2091482E80
:101680008091492E28130CC08091492E8F3719F470
:101690001092492E05C08091492E8F5F8093492E6C
:1016A0009FBF0F90DF91CF9108959091472E911198
:1016B0005BC0893569F0803F19F0823169F404C05C
:1016C00081E08093472E089581E08093462E08950F
:1016D00081E08093462E08959091462E992351F0F3
:1016E0009091A520891709F44FC0911125C040E0C1
:1016F00050E030C090912B21891709F442C0992302
:1017000079F090E09F5F492F50E0FA01EE0FFF1F44
:10171000E55DFE4D2081821739F02111F3CF02C023
:1017200040E050E0811133C0440F551FFA01E55DE0
:10173000FE4D818188CF089590E09F5F492F50E052
:10174000FA01EE0FFF1FEB55FF4D2081821721F0AC
:101750002111F3CF81111BC0440F551FFA01EB5526
:10176000FF4D818170CF08951092472E823119F07C
:10177000893521F008951092462E08951092462E34
:10178000089540E050E0D0CF40E050E0E5CF08952C
:101790001F920F920FB60F92112408B60F9218BE27
:1017A00009B60F9219BE0BB60F921BBE2F933F9333
:1017B0004F935F936F937F938F939F93AF93BF9359
:1017C000EF93FF938091B00B70DFFF91EF91BF918A
:1017D000AF919F918F917F916F915F914F913F91C9
:1017E0002F910F900BBE0F9009BE0F9008BE0F9067
:1017F0000FBE0F901F901895E3ECF2E38BE093E39C
:1018000010821182128213823496E817F907C1F709
:1018100008951F920F920FB60F92112408B60F92DF
:1018200018BE09B60F9219BE0BB60F921BBE2F93AE
:101830003F934F935F936F937F938F939F93AF9358
:10184000BF93EF93FF93E091C332F091C43230978E
:1018500009F01995FF91EF91BF91AF919F918F91F1
:101860007F916F915F914F913F912F910F900BBEA0
:101870000F9009BE0F9008BE0F900FBE0F901F90E3
:1018800018951F920F920FB60F92112408B60F925F
:1018900018BE09B60F9219BE0BB60F921BBE2F933E
:1018A0003F934F935F936F937F938F939F93AF93E8
:1018B000BF93EF93FF93E091C532F091C63230971A
:1018C00009F01995FF91EF91BF91AF919F918F9181
:1018D0007F916F915F914F913F912F910F900BBE30
:1018E0000F9009BE0F9008BE0F900FBE0F901F9073
:1018F00018951F920F920FB60F92112408B60F92EF
:1019000018BE09B60F9219BE0BB60F921BBE2F93CD
:101910003F934F935F936F937F938F939F93AF9377
:10192000BF93EF93FF93E091C732F091C8323097A5
:1019300009F01995FF91EF91BF91AF919F918F9110
:101940007F916F915F914F913F912F910F900BBEBF
:101950000F9009BE0F9008BE0F900FBE0F901F9002
:1019600018951F920F920FB60F92112408B60F927E
:1019700018BE09B60F9219BE0BB60F921BBE2F935D
:101980003F934F935F936F937F938F939F93AF9307
:10199000BF93EF93FF93E091C932F091CA32309731
:1019A00009F01995FF91EF91BF91AF919F918F91A0
:1019B0007F916F915F914F913F912F910F900BBE4F
:1019C0000F9009BE0F9008BE0F900FBE0F901F9092
:1019D00018951F920F920FB60F92112408B60F920E
:1019E00018BE09B60F9219BE0BB60F921BBE2F93ED
:1019F0003F934F935F936F937F938F939F93AF9397
:101A0000BF93EF93FF93E091CB32F091CC323097BC
:101A100009F01995FF91EF91BF91AF919F918F912F
:101A20007F916F915F914F913F912F910F900BBEDE
:101A30000F9009BE0F9008BE0F900FBE0F901F9021
:101A400018951F920F920FB60F92112408B60F929D
:101A500018BE09B60F9219BE0BB60F921BBE2F937C
:101A60003F934F935F936F937F938F939F93AF9326
:101A7000BF93EF93FF93E091CD32F091CE32309748
:101A800009F01995FF91EF91BF91AF919F918F91BF
:101A90007F916F915F914F913F912F910F900BBE6E
:101AA0000F9009BE0F9008BE0F900FBE0F901F90B1
:101AB00018951F920F920FB60F92112408B60F922D
:101AC00018BE09B60F9219BE0BB60F921BBE2F930C
:101AD0003F934F935F936F937F938F939F93AF93B6
:101AE000BF93EF93FF93E091CF32F091D0323097D4
:101AF00009F01995FF91EF91BF91AF919F918F914F
:101B00007F916F915F914F913F912F910F900BBEFD
:101B10000F9009BE0F9008BE0F900FBE0F901F9040
:101B200018951F920F920FB60F92112408B60F92BC
:101B300018BE09B60F9219BE0BB60F921BBE2F939B
:101B40003F934F935F936F937F938F939F93AF9345
:101B5000BF93EF93FF93E091D132F091D23230975F
:101B600009F01995FF91EF91BF91AF919F918F91DE
:101B70007F916F915F914F913F912F910F900BBE8D
:101B80000F9009BE0F9008BE0F900FBE0F901F90D0
:101B900018951F920F920FB60F92112408B60F924C
:101BA00018BE09B60F9219BE0BB60F921BBE2F932B
:101BB0003F934F935F936F937F938F939F93AF93D5
:101BC000BF93EF93FF93E091D332F091D4323097EB
:101BD00009F01995FF91EF91BF91AF919F918F916E
:101BE0007F916F915F914F913F912F910F900BBE1D
:101BF0000F9009BE0F9008BE0F900FBE0F901F9060
:101C000018951F920F920FB60F92112408B60F92DB
:101C100018BE09B60F9219BE0BB60F921BBE2F93BA
:101C20003F934F935F936F937F938F939F93AF9364
:101C3000BF93EF93FF93E091D532F091D632309776
:101C400009F01995FF91EF91BF91AF919F918F91FD
:101C50007F916F915F914F913F912F910F900BBEAC
:101C60000F9009BE0F9008BE0F900FBE0F901F90EF
:101C700018951F920F920FB60F92112408B60F926B
:101C800018BE09B60F9219BE0BB60F921BBE2F934A
:101C90003F934F935F936F937F938F939F93AF93F4
:101CA000BF93EF93FF93E091D732F091D832309702
:101CB00009F01995FF91EF91BF91AF919F918F918D
:101CC0007F916F915F914F913F912F910F900BBE3C
:101CD0000F9009BE0F9008BE0F900FBE0F901F907F
:101CE00018951F920F920FB60F92112408B60F92FB
:101CF00018BE09B60F9219BE0BB60F921BBE2F93DA
:101D00003F934F935F936F937F938F939F93AF9383
:101D1000BF93EF93FF93E091D932F091DA3230978D
:101D200009F01995FF91EF91BF91AF919F918F911C
:101D30007F916F915F914F913F912F910F900BBECB
:101D40000F9009BE0F9008BE0F900FBE0F901F900E
:101D500018951F920F920FB60F92112408B60F928A
:101D600018BE09B60F9219BE0BB60F921BBE2F9369
:101D70003F934F935F936F937F938F939F93AF9313
:101D8000BF93EF93FF93E091DF32F091E032309711
:101D900009F01995FF91EF91BF91AF919F918F91AC
:101DA0007F916F915F914F913F912F910F900BBE5B
:101DB0000F9009BE0F9008BE0F900FBE0F901F909E
:101DC00018951F920F920FB60F92112408B60F921A
:101DD00018BE09B60F9219BE0BB60F921BBE2F93F9
:101DE0003F934F935F936F937F938F939F93AF93A3
:101DF000BF93EF93FF93E091E132F091E23230979D
:101E000009F01995FF91EF91BF91AF919F918F913B
:101E10007F916F915F914F913F912F910F900BBEEA
:101E20000F9009BE0F9008BE0F900FBE0F901F902D
:101E300018951F920F920FB60F92112408B60F92A9
:101E400018BE09B60F9219BE0BB60F921BBE2F9388
:101E50003F934F935F936F937F938F939F93AF9332
:101E6000BF93EF93FF93E091E332F091E432309728
:101E700009F01995FF91EF91BF91AF919F918F91CB
:101E80007F916F915F914F913F912F910F900BBE7A
:101E90000F9009BE0F9008BE0F900FBE0F901F90BD
:101EA00018951F920F920FB60F92112408B60F9239
:101EB00018BE09B60F9219BE0BB60F921BBE2F9318
:101EC0003F934F935F936F937F938F939F93AF93C2
:101ED000BF93EF93FF93E091E532F091E6323097B4
:101EE00009F01995FF91EF91BF91AF919F918F915B
:101EF0007F916F915F914F913F912F910F900BBE0A
:101F00000F9009BE0F9008BE0F900FBE0F901F904C
:101F100018951F920F920FB60F92112408B60F92C8
:101F200018BE09B60F9219BE0BB60F921BBE2F93A7
:101F30003F934F935F936F937F938F939F93AF9351
:101F4000BF93EF93FF93E091E732F091E83230973F
:101F500009F01995FF91EF91BF91AF919F918F91EA
:101F60007F916F915F914F913F912F910F900BBE99
:101F70000F9009BE0F9008BE0F900FBE0F901F90DC
:101F800018951F920F920FB60F92112408B60F9258
:101F900018BE09B60F9219BE0BB60F921BBE2F9337
:101FA0003F934F935F936F937F938F939F93AF93E1
:101FB000BF93EF93FF93E091E932F091EA323097CB
:101FC00009F01995FF91EF91BF91AF919F918F917A
:101FD0007F916F915F914F913F912F910F900BBE29
:101FE0000F9009BE0F9008BE0F900FBE0F901F906C
:101FF00018951F920F920FB60F92112408B60F92E8
:1020000018BE09B60F9219BE0BB60F921BBE2F93C6
:102010003F934F935F936F937F938F939F93AF9370
:10202000BF93EF93FF93E091FB32F091FC32309736
:1020300009F01995FF91EF91BF91AF919F918F9109
:102040007F916F915F914F913F912F910F900BBEB8
:102050000F9009BE0F9008BE0F900FBE0F901F90FB
:1020600018951F920F920FB60F92112408B60F9277
:1020700018BE09B60F9219BE0BB60F921BBE2F9356
:102080003F934F935F936F937F938F939F93AF9300
:10209000BF93EF93FF93E091FD32F091FE323097C2
:1020A00009F01995FF91EF91BF91AF919F918F9199
:1020B0007F916F915F914F913F912F910F900BBE48
:1020C0000F9009BE0F9008BE0F900FBE0F901F908B
:1020D00018951F920F920FB60F92112408B60F9207
:1020E00018BE09B60F9219BE0BB60F921BBE2F93E6
:1020F0003F934F935F936F937F938F939F93AF9390
:10210000BF93EF93FF93E091FF32F091003330974C
:1021100009F01995FF91EF91BF91AF919F918F9128
:102120007F916F915F914F913F912F910F900BBED7
:102130000F9009BE0F9008BE0F900FBE0F901F901A
:1021400018951F920F920FB60F92112408B60F9296
:1021500018BE09B60F9219BE0BB60F921BBE2F9375
:102160003F934F935F936F937F938F939F93AF931F
:10217000BF93EF93FF93E0910133F09102333097D7
:1021800009F01995FF91EF91BF91AF919F918F91B8
:102190007F916F915F914F913F912F910F900BBE67
:1021A0000F9009BE0F9008BE0F900FBE0F901F90AA
:1021B0001895CF93DF93E0914A2EF0914B2E8481B6
:1021C00083FF08C08860848383E0838386EF8093E5
:1021D000542E83C0982F947131F083E083838FEF66
:1021E0008093542E7AC086FF43C0CAE4DEE2AA81FF
:1021F000BB818C819D8114962D913C9115978217FE
:1022000093076CF49C012F5F3F4F20934E2E309329
:102210004F2EA80FB91F11968C9187835EC08091B5
:10222000502E9091512E18962D913C91199782170E
:102230009307C8F42091522E222321F086818160D9
:1022400086834BC016962D913C911797AC014F5F3A
:102250005F4F4093502E5093512ED901A80FB91FB4
:102260008C9187833AC083E083831092542E35C0CB
:10227000882384F5AAE4BEE21296CD91DC911397EF
:1022800016968D919C91179728853985821793070B
:10229000D8F46E817F819C012F5F3F4F2093502E99
:1022A0003093512E4781DB01A80FB91F4C938885CD
:1022B00099852817390718F482E083830EC087E0D8
:1022C00083831092542E09C083E0838389EF809327
:1022D000542E03C08BEF8093542EDF91CF9108953D
:1022E0001F920F920FB60F92112408B60F9218BECC
:1022F00009B60F9219BE0BB60F921BBE2F933F93D8
:102300004F935F936F937F938F939F93AF93BF93FD
:10231000EF93FF934EDFFF91EF91BF91AF919F91AC
:102320008F917F916F915F914F913F912F910F907E
:102330000BBE0F9009BE0F9008BE0F900FBE0F90FE
:102340001F9018951F920F920FB60F92112408B686
:102350000F9218BE09B60F9219BE0BB60F921BBE94
:102360002F933F934F935F936F937F938F939F939D
:10237000AF93BF93EF93FF931CDFFF91EF91BF915A
:10238000AF919F918F917F916F915F914F913F910D
:102390002F910F900BBE0F9009BE0F9008BE0F90AB
:1023A0000FBE0F901F9018951F920F920FB60F92AD
:1023B000112408B60F9218BE09B60F9219BE0BB6BB
:1023C0000F921BBE2F933F934F935F936F937F9317
:1023D0008F939F93AF93BF93EF93FF93EADEFF91A9
:1023E000EF91BF91AF919F918F917F916F915F918D
:1023F0004F913F912F910F900BBE0F9009BE0F9000
:1024000008BE0F900FBE0F901F9018951F920F924D
:102410000FB60F92112408B60F9218BE09B60F928C
:1024200019BE0BB60F921BBE2F933F934F935F9332
:102430006F937F938F939F93AF93BF93EF93FF938C
:10244000B8DEFF91EF91BF91AF919F918F917F91F6
:102450006F915F914F913F912F910F900BBE0F9015
:1024600009BE0F9008BE0F900FBE0F901F901895D9
:1024700010926A2F1092762F1092772FECE6FFE2DF
:1024800081EA808380E28183128213821482158222
:1024900082E090E08683978310861186EAE7FFE268
:1024A00080E092ECA1E0B0E080839183A283B383CB
:1024B0001482158288E0868380916A2F8F5F8093D3
:1024C0006A2F81E0089580916A2F815080936A2F4E
:1024D00008958091692F81508093692F8091692F91
:1024E0001092682F089580E0089580E0089580910B
:1024F00011338823CCF480768032B9F58091123381
:102500008132A9F58091173390911833079789F597
:10251000E1E1F3E38AE79FE28087918787E090E03B
:102520008287938781E008958076803221F58091BB
:102530001233803221F0823201F180E008958091DF
:102540001733909118330797D1F4E1E1F3E381EC6D
:1025500092E1848795878AE79FE28087918787E069
:1025600090E08287938781E0089580E0089580E07D
:10257000089580E0089580E0089581E0089580E066
:1025800008950895FF920F931F93CF93DF931F92A7
:10259000CDB7DEB78091582E81119FC00E94251EB5
:1025A000882351F00091592E10915A2E0E94321E0C
:1025B0000817190759F491C00091592E10915A2EFD
:1025C0000E942D1E0817190709F487C08FB7898349
:1025D000F894198100915B2EE02FF0E0EE0FFF1FC1
:1025E000E45AF14D80819181892B09F58091552E16
:1025F0009091562E01968093552E9093562E0E94C0
:10260000251E811107C08091552E9091562E84363B
:10261000910558F00E94251E882349F08091552E7F
:102620009091562E8032934010F41FBF56C01092E6
:10263000552E1092562E8091572E811106C081E0A2
:10264000011180E080935B2E04C081E0011180E0E5
:10265000082F81E08093582E1FBF10E0F801EE0F85
:10266000FF1FE45AF14D80819181FF24F39480345F
:10267000910509F4F12C8034910591F00E94251EFA
:10268000882339F00E94321E8093592E90935A2E3F
:102690000BC00E942D1E8093592E90935A2E04C079
:1026A0001092592E10925A2EF801EE0FFF1FE45A85
:1026B000F14D20813181A80100245695479507945A
:1026C000569547950794542F402D405A514D04E795
:1026D00013E16F2D81E80E942A1F0F90DF91CF91A7
:1026E0001F910F91FF900895811115C020915B2ECD
:1026F00081E090E0222311F080E090E0880F991FA4
:10270000FC01E45AF14D108211821092572E109262
:10271000582E80E037CF089580E034CF08950F938E
:102720001F938091782F81111FC02091762F3091B7
:10273000772F8091742F9091752F28173907A1F06A
:10274000862F2091762F3091772F2093742F3093FE
:10275000752F01EE13E12AE030E04CE65FE260E025
:102760000E942A1F8093782F1F910F910895CF9375
:10277000DF931F92CDB7DEB78FB78983F894298195
:10278000662359F08091762F9091772F482B592B03
:102790004093762F5093772F0CC08091762F909195
:1027A000772F40955095482359234093762F509387
:1027B000772F2FBF62E880E0B2DF0F90DF91CF91DB
:1027C00008951092782F8091762F9091772F8378AB
:1027D0008093762F9093772FECE6FFE280859185AA
:1027E000837880879187642F80E099CF089540E1B6
:1027F00050E061E080E0BBCF089540E450E061E04C
:1028000080E0B5CF0895CF93DF931F92CDB7DEB7A9
:102810008FB78983F89449812091E12E3091E22E7F
:10282000E091E32EF0E0EE0FFF1FEC51F14D8081BF
:1028300091814FBF821B930B0F90DF91CF91089531
:1028400080E0E1CF0895DFDF21E0892B09F420E06B
:10285000822F08950F931F93CF93DF931F92CDB7CD
:10286000DEB78FB78983F89499812091E32E809108
:10287000E02E811110C06091E12E7091E22E022FA6
:1028800010E0F801EE0FFF1FEC51F14D4081518136
:102890006417750718F49FBF80E023C01092E12EE3
:1028A0001092E22E81E0211180E08093E32E81E0FE
:1028B0008093E02E9FBF80E0C6DFA80100245695DC
:1028C00047950794569547950794542F402D4851A6
:1028D000514D09EA14E120E430E061E082E00E9419
:1028E0002A1F0F90DF91CF911F910F9108951092A1
:1028F000692F1092582E1092572E10925B2EECE5F5
:10290000FEE210821182128213821092592E1092CE
:102910005A2E80E037DE1092E02E1092E32EE4EE85
:10292000FEE210821182128213821092E12E109226
:10293000E22E80E08FDF882359F09091692F9F5F0E
:102940009093692F9091692F913011F49093682F93
:1029500008950F931F93811129C08091E32EE1E028
:102960008111E0E0842F61157105A9F44E2F50E02C
:102970000024569547950794569547950794542FEC
:10298000402D4851514D09EA14E120E430E061E066
:102990000E942A1F0BC0F0E0EE0FFF1FEC51F14D1B
:1029A000608371831092E02E80E054DF1F910F91BD
:1029B000089580E048CF0895EF92FF921F93CF9340
:1029C000DF931F92CDB7DEB711E08091802F893061
:1029D00009F010E040E050E08FB78983F894A981B6
:1029E0002091E12E3091E22E8091E32E90E0FC01C7
:1029F000EE0FFF1FEC51F14D60817181AFBF2617C3
:102A0000370730F08091682F8111E6CF90E021C028
:102A1000FC010024F695E7950794F695E795079451
:102A2000FE2FE02DE851F14DE20FF31F80817A0176
:102A3000E82A2F5F3F4F2093E12E3093E22E80E073
:102A400009DF112321F05E2D442710E0C5CF8E2D24
:102A50009F2D0F90DF91CF911F91FF90EF900895E0
:102A600080E0AACF0895CF93DF931F92CDB7DEB752
:102A70008FB78983F894998180915B2EE82FF0E0DD
:102A8000EE0FFF1FE45AF14D2081318120343105D2
:102A900089F44091582E41110DC04091572E41119B
:102AA00009C021E02093572E811120E020935B2E56
:102AB00020E030E09FBF80E490E0821B930B0F90FA
:102AC000DF91CF910895CFDF21E0892B09F420E039
:102AD000822F089580E0F7CF0895FF920F931F9300
:102AE000CF93DF931F92CDB7DEB7F62E172F01E0FD
:102AF0008091802F893009F000E080E0E4DF8111CF
:102B000007C08091682F8111F8CF80E090E02CC041
:102B10008FB78983F894498180915B2E90E0FC0106
:102B2000EE0FFF1FE45AF14D20813181B9016F5F33
:102B30007F4F6083718300249695879507949695BF
:102B400087950794982F802D805A914DFC01E20FB4
:102B5000F31FF0824FBF002329F0F12E110F110B4C
:102B600000E0CBCF81E090E00F90DF91CF911F91FB
:102B70000F91FF900895BC0180E0AFCF08955F9260
:102B80006F927F928F929F92AF92BF92CF92DF927D
:102B9000EF92FF920F931F93CF93DF931F92CDB7C6
:102BA000DEB74B015A018091802F893011F4AA0CB5
:102BB000BB1C6894662466F8712C80E084DF811168
:102BC00007C08091682F8111F8CF8A2D9B2D3AC0C4
:102BD0008FB78983F894598000915B2E10E0F8013B
:102BE000EE0FFF1FE45AF14DE080F180C3018E1912
:102BF0009F0965018A159B0508F46C01C801002432
:102C0000969587950794969587950794982F802D8C
:102C10008E0D9F1DA601B401805A914D0E94D8319E
:102C2000000F111FF801E45AF14DEC0CFD1CE0827D
:102C3000F1825FBE8C0C9D1CAC18BD0809F0BDCFA5
:102C400080E090E00F90DF91CF911F910F91FF9066
:102C5000EF90DF90CF90BF90AF909F908F907F903C
:102C60006F905F900895E091862FF091872F0190EB
:102C7000F081E02D228133812E0F3F1FFC01408126
:102C8000E40FF11DE217F307A0F481818430A1F075
:102C9000861306C014C081818430A1F08617A9F084
:102CA0008081E80FF11DE217F307A8F380E090E0C0
:102CB000089580E090E0089580E090E008958E2FE0
:102CC0009F2F089580E090E008958E2F9F2F089504
:102CD000809113338F77BBC708959091882F9923E4
:102CE00081F1E091862FF091872F0190F081E02D06
:102CF0009481891740F5E093842FF093852F2281EA
:102D000033812E0F3F1FE217F307F8F491819430BF
:102D100061F49281891309C09381961306C0E093F0
:102D2000842FF093852F81E008959081E90FF11DA4
:102D3000E217F30758F3E093842FF093852F80E098
:102D4000089580E0089580E0089580E00895EF926E
:102D5000FF921F93CF93DF93C82F60E0BEDF182F41
:102D6000882381F1A091862FB091872FEC2FF0E07E
:102D7000EE0FFF1F12968D919C911397E80FF91F8C
:102D8000E080F180D7011696ED91FC911797199587
:102D9000682F8C2FA2DF182F8823A1F0C091842FD9
:102DA000D091852F65E0CE015EDFEC01892B21F00B
:102DB0008A810E944420F6CFD7011296ED91FC91B2
:102DC00013971995812FDF91CF911F91FF90EF906D
:102DD00008951F93CF93DF93182F7FDF882339F156
:102DE000C091842FD091852F65E0CE013CDFEC01AE
:102DF000892B41F04C815D816B818A813DD78111A6
:102E0000F3CF15C0A091862FB091872FE12FF0E06E
:102E1000EE0FFF1F12968D919C911397E80FF91FEB
:102E20000190F081E02D0190F081E02D1995DF9166
:102E3000CF911F91089584C60895CF938091882FD4
:102E40008823C1F0E091862FF091872F0190F081C7
:102E5000E02D8481882371F0C0E08C2F78DFCF5F74
:102E6000E091862FF091872F0190F081E02D8481F1
:102E7000C81798F31092882F81E090E080938C2FF0
:102E800090938D2FCF91089501D6D7CF0895CF93EA
:102E90008091882F882349F1A091862FB091872FA8
:102EA000ED91FC91119784818823F9F0C0E0EC2F1B
:102EB000F0E0EE0FFF1F12968D919C911397E80F93
:102EC000F91F0190F081E02D0084F185E02D30970D
:102ED00009F01995CF5FA091862FB091872FED91C2
:102EE000FC9111978481C81710F3CF9108950F9327
:102EF0001F93CF93DF93E1E1F3E3128613861486E9
:102F0000158616861786808188230CF03CC2209196
:102F10001733309118332115310509F039C22BC20E
:102F20008F7109F07FC090911233963079F098300C
:102F300009F46EC0911176C02230310509F0A2C1AA
:102F400062E070E08CE89FE290D627C28091133354
:102F500090911433292F332722303105A9F020F422
:102F60002130310541F085C123303105D9F12F30B1
:102F7000310551F17EC18091C5219091C621DC01BE
:102F80006C9170E072D635C0E091C521F091C621F8
:102F90002189821708F076C19927880F991F880F19
:102FA000991FE091C721F091C821E80FF91F808196
:102FB0009181FC016281738158D6E0911933F091BF
:102FC0001A3382E0818315C08091C9219091CA2172
:102FD000009709F457C1DC0112966D917C9113970B
:102FE00044D607C081114EC164E070E08AE292E2EB
:102FF0003CD6E1E1F3E38681978122853385821710
:10300000930708F0CAC180931B3390931C33C5C14A
:103010002130310509F036C161E070E088E89FE2B7
:1030200024D6BBC18130E1F5909112339A30C1F5BD
:103030002130310509F026C18091882F882309F4B9
:1030400021C1C0911533D09116330091862F109174
:10305000872FD801ED91FC918481C81708F012C127
:1030600060E08C2F3ADE882309F40CC1CE01992749
:10307000880F991FD8011296ED91FC911397E80FD4
:10308000F91F0190F081E02D86819781FC0119954F
:1030900080938A2F61E070E08AE89FE2E6D57DC1E7
:1030A000823009F0EFC0809112338111E4C02230E8
:1030B000310509F0E7C0809115336FD690E0809319
:1030C000822F9093832F62E070E082E89FE2CDD55B
:1030D00064C18F7109F083C090911233933009F469
:1030E000CCC018F49130A1F07AC0953019F0993025
:1030F00039F175C08091173390911833892B09F0FD
:10310000C1C088E696E180931D3390931E3345C17C
:103110008091173390911833892B09F0B3C08091B7
:10312000133390911433019709F0ACC080918C2F28
:1031300090918D2F8D7F80938C2F90938D2F2DC10B
:103140008091173390911833892B09F09BC082D559
:10315000882309F497C02091133330911433332717
:10316000E091C521F091C621818990E082179307F3
:1031700008F488C062DE80911333909114338093F9
:10318000882F882309F409C199278150904C880F12
:10319000991F880F991FE091C721F091C821E80F6E
:1031A000F91FE093862FF093872F0190F081E02D97
:1031B0008481882309F4F1C0C0E060E08C2F09DE2F
:1031C000882309F45FC0CF5FE091862FF091872FAD
:1031D0000190F081E02D8481C81778F3DEC0813042
:1031E000E1F4909112339B30C1F4809117339091A8
:1031F0001833892B09F046C08091882F882309F461
:1032000041C0E1E1F3E3C481D2818C2FA0DD8823AA
:10321000C9F16D2F8C2FDDDD33C0823099F580919F
:103220001233813019F0833089F029C0809117332F
:1032300090911833892B31F5809113339091143389
:10324000892B01F580911533C3D51AC080911733AE
:1032500090911833892BB1F48091133390911433EA
:10326000892B81F4C1E1D3E38C81BFD68C8128D72F
:1032700007C080E005C080E003C080E001C080E0BE
:1032800081118CC0809111338F71813081F58091D3
:10329000882F882309F471C00091153310911633DB
:1032A000C091862FD091872FE881F98184810817FA
:1032B00008F065C060E0802F10DD8823C1F0F801C0
:1032C000FF27CF01880F991FEA81FB81E80FF91FC3
:1032D000C081D181EE81FF811995682F802FFDDC9F
:1032E000882329F0EC81FD811995811157C08091C7
:1032F00011338F71823009F044C08091882F882368
:10330000B1F1A091862FB091872FED91FC9111978B
:103310008481882371F1C0E0EC2FF0E0EE0FFF1FF5
:1033200012968D919C911397E80FF91F00811181DE
:10333000D8011696ED91FC9117971995682F8C2F4F
:10334000CCDC882359F1D8011496ED91FC911597A6
:103350001995811123C0CF5FA091862FB091872F3F
:10336000ED91FC9111979481C917B0F217C080E0DC
:1033700015C080E013C080E011C080E00FC080E085
:103380000DC080E00BC0982F907609F07BCFA1CEC6
:10339000982F907609F076CFC3CD81E0DF91CF9161
:1033A0001F910F910895CF93DF931F92CDB7DEB792
:1033B00080910F3390911033E0910B33F0910C33E7
:1033C000BE016F5F7F4F19958981082E000C990B04
:1033D0000F90DF91CF91089580918E2F882381F0F7
:1033E000862F082E000C990BC6DB21E030E0892BDC
:1033F00011F020E030E088279927821B930B089575
:1034000080E090E00895CF93DF9380918E2F81111B
:1034100003C0FB01108203C0EB0122DB8883DF9134
:10342000CF91089581E080938E2F089510928E2F72
:10343000089510920F33109210338CEE99E180931F
:103440000D3390930E3383E09AE180930B33909386
:103450000C33F1DC63ED79E181E39AE10C94E8311E
:103460000895682F80910F3390911033E0910D33C0
:10347000F0910E33199599231CF081E090E00895A6
:103480008FEF9FEF0895CF93DF931F921F92CDB7D9
:10349000DEB7811126C09091D0309923F9F0909138
:1034A0002233911101C0FFCF9FB79A83F8942A81EC
:1034B000E1E2F3E39181915091832FBF0FC090918E
:1034C00022339F3F09F4FFCF9FB79983F894298156
:1034D000E1E2F3E391819F5F91832FBF8093D0302E
:1034E00005C09091D030992351F3F8CF0F900F90F1
:1034F000DF91CF9108950F93E8ECF4E080818F7D08
:10350000808380818F7D8083E8E9F0E302E005938A
:1035100010929A3010929B3000E2069300E40693DA
:10352000E0E9F0E300E40693E1E1F3E314861586B5
:103530001686178612861386109278300F9108959A
:103540000F9385E080937830E9E9F0E304E0059398
:10355000E1E9F0E304E005930F9108950F9383E010
:103560008093783010929A3010929B30E8E9F0E323
:1035700002E006930F910895E0911D33F0911E3300
:10358000309709F0199508950F93CF93DF938091A9
:103590007830833019F4F0DFAEDF5EC08091743094
:1035A00090917530C0911B33D0911C33C81BD90B3F
:1035B00071F52091763030917730820F931F809390
:1035C00076309093773020911733309118338217EB
:1035D000930721F080918F2F882341F084E080931E
:1035E0007830E0E9F0E302E0069336C0E0911F3363
:1035F000F0912033309799F01995882381F010923B
:10360000743010927530C0911B33D0911C33C0348C
:10361000D10528F010928F2FC0E4D0E003C081E0E4
:1036200080938F2FE0E8F0E3C28FD38F80917430C6
:10363000909175302091193330911A33280F391F2A
:10364000248F358FC80FD91FC0937430D093753035
:10365000E8E9F0E302E00693DF91CF910F9108953E
:10366000FC018181E82FE7708E2F90E0FC013197FB
:10367000E730F105D8F48827E15FFE4F8F4F0C94B7
:10368000B63180E190E0089580E290E0089580E412
:1036900090E0089580E890E0089580E091E008953A
:1036A00080E092E008958FEF93E0089588E090E045
:1036B0000895282F2F7030E0220F331F082E000CA2
:1036C000990B8827990F881F9927820F931F0297BC
:1036D0009C01220F331F220F331F220F331F820F33
:1036E000931F805F9F4C08950F93CF938091CC04DC
:1036F00080FF64C081E08093CC04E0E9F0E300E85F
:103700000693E8E9F0E300E806938093CA04E0E951
:10371000F0E300E1069380917830882329F083500C
:10372000823008F429DFE7DE809192309091933067
:10373000089709F045C088E0E4E3F0E3A1E1B3E3D2
:1037400001900D928A95E1F7E8ECF4E080818062C7
:103750008083808180628083CADBC82F811103C08F
:10376000EFDEC1E02EC08091113388236CF41092FB
:10377000763010927730109274301092753082E06B
:103780008093783001DF1DC08091173390911833FA
:10379000892B11F4E3DE15C0109276301092773049
:1037A000109274301092753081E080937830E0E9A7
:1037B000F0E302E0069300E2069303C0C0E001C01C
:1037C000C1E08C2FCF910F9108958F929F92AF926D
:1037D000BF92DF92EF92FF920F931F93CF93DF93ED
:1037E000D82E67DF8C01CD2DCF70D0E0CE01880FB1
:1037F000991FCD2D0D2C000CDD0BCC27DD0FCC1F20
:10380000DD27C80FD91FCE01880F991F880F991F78
:10381000880F991F9C0120573F4C7901C90120DF77
:103820004C01DD200CF072C0FE01EE0FFF1FEE0F09
:10383000FF1FEE0FFF1FE058FF4C26893789D80184
:1038400015968D919C911697820F931F15968D93C7
:103850009C93169713962D913C911497821793077A
:1038600009F43EC0281B390B2115B4E03B0740F09A
:103870002FEF33E0C901B4010E94A231281B390B9C
:10388000F801808181FF0AC0C901B4010E94A23100
:1038900041E0892B09F040E0842F01C080E0D8018D
:1038A0009C9180FB91F99C93CC0FDD1FCC0FDD1F09
:1038B000CC0FDD1FC058DF4C1E8A1F8A2A8B3B8B22
:1038C00011962D913C91129715968D919C9116977A
:1038D000820F931F8C8B9D8BF70102E00693CAC069
:1038E000D8018C9181FFB3C08D7F8C93CC0FDD1FED
:1038F000CC0FDD1FCC0FDD1FC058DF4C1E8A1F8A86
:103900001A8A1B8AF70102E00693B4C0FE01EE0F8B
:10391000FF1FEE0FFF1FEE0FFF1FE058FF4CA288A6
:10392000B388D8018C9182FF1BC01196ED91FC9158
:10393000129715962D913C91169713968D919C9107
:103940001497B4010E94A231B0E4DB9EB0011124AF
:10395000605B704DAC01CF01820F931F0E94D83184
:10396000F801258136812A0D3B1D2583368383810D
:1039700094818217930768F485839683CC0FDD1FAB
:10398000CC0FDD1FCC0FDD1FC058DF4C8E899F8907
:103990005EC0FE01EE0FFF1FEE0FFF1FEE0FFF1FB9
:1039A000E058FF4C46895789A416B50609F04FC068
:1039B0002817390709F44BC0AC01421B530B9A017D
:1039C000211554E0350748F02FEF33E0C901B40169
:1039D0000E94A231281B390B06C0C901B4010E9404
:1039E000A231281B390BFE01EE0FFF1FEE0FFF1F48
:1039F000EE0FFF1FE058FF4C128A138A2815390575
:103A000078F4D8018C9184608C93B0E4DB9EC00183
:103A10001124805B904D848B958B868A978A13C086
:103A2000F8014181528185819681840F951FCC0FC9
:103A3000DD1FCC0FDD1FCC0FDD1FC058DF4C8C8B82
:103A40009D8B2E8B3F8BF70102E0069313C0D801AC
:103A50008C9180FF0FC08E7F8C931796ED91FC9117
:103A60001897309739F015966D917C9116974D2DDA
:103A700080E01995DF91CF911F910F91FF90EF900A
:103A8000DF90BF90AF909F908F9008951F93CF933A
:103A9000DF931F921F92CDB7DEB78FB78983F8945B
:103AA0001981E1ECF4E080818E7F80831092C00464
:103AB00010820E94F02F80E0E6DC80912633811195
:103AC00001C0FFCF8FB78A83F8949A81E1E2F3E3D4
:103AD0008581815085839FBF1FBF0F900F90DF911D
:103AE000CF911F9108951F93CF93DF931F92CDB76E
:103AF000DEB78FB78983F894198181E0C4DCEAECE2
:103B0000F4E080E4808380E28083E1ECF4E0808173
:103B100081608083A9ECB4E08C9182608C93E8ECA6
:103B2000F4E08081806480838C9181608C938081BB
:103B3000806880831FBF0F90DF91CF911F91089500
:103B40000F931F93CF93DF931F921F92CDB7DEB7D2
:103B500000E610E0F801108280E30E94AB2FE0EC59
:103B6000F4E080818064808381E0F80180838FB7F6
:103B70008A83F8941A81E0E8F0E3118A118E11A289
:103B800011A611AA11AEE0E1F0E380818E7F80835F
:103B9000E9E1F0E380818E7F8083E2E2F0E38081DF
:103BA0008E7F8083EBE2F0E380818E7F80836AE109
:103BB00070E082E00E94AD308F3F19F08093FA04EC
:103BC00003C08FE18093FA046BE170E082E00E9411
:103BD000AD308F3F19F08093FB0403C08FE18093D9
:103BE000FB04E0ECF4E08081826080838081806867
:103BF000808380818061808380E990E386839783DE
:103C00008081806280838FEF8093C504E8ECF4E0CC
:103C10008081816080831092D030809126338F3FE5
:103C200009F4FFCF8FB78983F8949981E1E2F3E338
:103C300085818F5F85839FBF56DF1FBF0F900F90D9
:103C4000DF91CF911F910F91089580E008958093A7
:103C5000C30408958091C30408958091C030909169
:103C6000C130089580E090E00895E1E1F3E38087BA
:103C70009187628773870895282F2F7030E0220F75
:103C8000331F082E000C990B8827990F881F99273E
:103C9000820F931FFC01EE0FFF1FEE0FFF1FEE0FB1
:103CA000FF1FE058FF4C2189207C09F072C063702F
:103CB000613011F018F404C060EC03C060E801C08A
:103CC00060E440385105E9F050F440325105A9F064
:103CD00040345105A1F040315105D9F40CC04115D3
:103CE00022E0520791F04F3F23E0520781F0411547
:103CF000514079F408C021E00DC022E00BC023E060
:103D000009C024E007C025E005C026E003C027E085
:103D100001C020E0FC01EE0FFF1FEE0FFF1FEE0FB2
:103D2000FF1FE058FF4C118ADC01AA0FBB1FAA0F2E
:103D3000BB1FAA0FBB1FA057BF4C36E03C93262BDE
:103D4000218BFC01EE0FFF1FEE0FFF1FEE0FFF1F79
:103D5000E058FF4C2189207C203C69F4FC01EE0FE7
:103D6000FF1FEE0FFF1FEE0FFF1FE058FF4C2189D2
:103D70002770273081F0880F991F880F991F880FAF
:103D8000991FFC01E058FF4C81898062818B81E0A2
:103D9000089580E0089581E00895E82FEF70F0E045
:103DA000EE0FFF1F082E000C990B8827990F881F14
:103DB0009927E80FF91FEE0FFF1FEE0FFF1FEE0F01
:103DC000FF1FE058FF4C818982FB882780F9089506
:103DD0000F93282F2F7030E0A901440F551F282F73
:103DE000082E000C330B2227330F221F3327240FFA
:103DF000351FF901EE0FFF1FEE0FFF1FEE0FFF1F24
:103E0000E057FF4C01E00693F901EE0FFF1FEE0FA4
:103E1000FF1FEE0FFF1FE058FF4C918992FF17C064
:103E2000220F331F220F331F220F331FF901E058D7
:103E3000FF4C91899B7F918B3CDCFC01808180FF52
:103E400006C08E7F80830780F085E02D199581E084
:103E50000F9108956F927F928F929F92AF92BF922F
:103E6000CF92DF92EF92FF920F931F93CF93DF9346
:103E70001F92CDB7DEB7782E662E4A01590119DCA4
:103E80006C01272D872D8F70E82EF12CC701880F2C
:103E9000991FE72C072C000CFF08EE24FF0CEE1CEA
:103EA000FF24E80EF91EF701EE0FFF1FEE0FFF1FB4
:103EB000EE0FFF1FE058FF4C8189807C09F482C01F
:103EC000F701EE0FFF1FEE0FFF1FEE0FFF1FE05871
:103ED000FF4C8189807C803C61F0F701EE0FFF1F71
:103EE000EE0FFF1FEE0FFF1FE058FF4C818982FD90
:103EF0006BC08FB78983F8948981F601908190FF18
:103F000003C08FBF80E061C0F60190819160908313
:103F10008FBF81829282A382B48215821682078328
:103F20001087611006C091E0A114B10419F090E06F
:103F300001C091E0F601808190FB81F98B7F808345
:103F4000222364F4F701EE0FFF1FEE0FFF1FEE0FA9
:103F5000FF1FE058FF4C168A178A30C0F701EE0F9A
:103F6000FF1FEE0FFF1FEE0FFF1FE058FF4C818970
:103F7000807C803CB1F4C701880F991F880F991F7E
:103F8000880F991F80579F4C6BDBBC01C5010E94B5
:103F9000A231892B31F0F60180818E7F808380E011
:103FA00014C0F701EE0FFF1FEE0FFF1FEE0FFF1FF4
:103FB000E058FF4C128A138A168A178A872D05DC6F
:103FC00081E003C080E001C080E00F90DF91CF91DD
:103FD0001F910F91FF90EF90DF90CF90BF90AF9027
:103FE0009F908F907F906F900895FF920F931F93F3
:103FF000CF93DF93182FC82FCF70D0E0CE01880F5A
:10400000991FC12F012E000CDD0BCC27DD0FCC1F1B
:10401000DD27C80FD91F812F4CDBDC01FE01EE0F1D
:10402000FF1FEE0FFF1FEE0FFF1FE057FF4C02E0D8
:1040300005938C9180FF22C08E7F8C931796ED9113
:10404000FC9118973097D1F011235CF4CC0FDD1F51
:10405000CC0FDD1FCC0FDD1FC058DF4C6E897F8970
:104060000AC0CC0FDD1FCC0FDD1FCC0FDD1FC058E9
:10407000DF4C6A897B89412F81E01995DF91CF91CF
:104080001F910F91FF900895CF93C82FAEDFEC2FB3
:10409000EF70F0E0EE0FFF1F8C2FCC0F990B8827ED
:1040A000990F881F9927E80FF91FEE0FFF1FEE0FDA
:1040B000FF1FEE0FFF1FE058FF4C118ACF910895AC
:1040C000E82FEF70F0E0EE0FFF1F282F082E000CF6
:1040D000330B2227330F221F3327E20FF31FEE0F7C
:1040E000FF1FEE0FFF1FEE0FFF1FE058FF4C9189DF
:1040F0009460918B7ADF81E008951F920F920FB642
:104100000F92112408B60F9218BE09B60F9219BE6D
:104110000BB60F921BBE0F932F933F934F935F935A
:104120006F937F938F939F93AF93BF93EF93FF937F
:104130008091CB04882334F480E88093CA040E94E1
:10414000471786C08091CB0482FF20C084E0809313
:10415000CA048091983086FF7BC08091CC0481FD99
:1041600077C0C2DA811174C080917830813011F447
:10417000F5D96EC0843009F06BC0E9E9F0E304E0E2
:104180000593E1E9F0E304E0059362C08091CB047C
:1041900081FF59C082E08093CA048091903086FFED
:1041A00057C08091CC0481FD53C09EDA811150C06C
:1041B00080917830823041F484E080937830E0E977
:1041C000F0E302E0069344C0833009F041C0E9E91E
:1041D000F0E304E00593E1E9F0E304E0059338C07F
:1041E00080E18093CA0481E000DF81E8FEDE82E0A6
:1041F000FCDE82E8FADE0E941D171092C304E0E89C
:10420000F0E3118A96E0908B83E4818B118E908F7E
:10421000818F84E390E3848B958B6DD919C0809155
:10422000CB0486FF06C080E48093CA0480E02BD9CB
:104230000FC08091CB0485FF0BC080E28093CA043D
:1042400081E021D905C08091CB0484FDC9CFE7CF9F
:10425000FF91EF91BF91AF919F918F917F916F915E
:104260005F914F913F912F910F910F900BBE0F9047
:1042700009BE0F9008BE0F900FBE0F901F901895AB
:104280001F920F920FB60F92112408B60F9218BE0C
:1042900009B60F9219BE0AB60F921ABE0BB60F924C
:1042A0001BBE0F931F932F933F934F935F936F9377
:1042B0007F938F939F93AF93BF93CF93DF93EF93AE
:1042C000FF938091CC0481FD03C00EDA8111BCC044
:1042D00082E08093CC048091C5048195880FE0E949
:1042E000F0E3E81BF10920813181205930433695F4
:1042F00027953695279536952795822F869520FD0B
:1043000002C090E001C090E8890FE82FEF70F0E064
:10431000EE0FFF1F282F082E000C330B2227330F20
:10432000221F3327E20FF31FDF01AA0FBB1FAA0FC3
:10433000BB1FAA0FBB1FA057BF4C9C9195FF84C009
:10434000FD0100E2069381117AC0809178308430BB
:1043500019F412D9D0D878C00091923010919330CE
:1043600080911B3390911C33C0917430D091753083
:1043700098012C0F3D1F8217930718F48C010C1B1A
:104380001D0B8091193390911A33A80164E370E3F7
:104390008C0F9D1F0E94D831C00FD11FC093743065
:1043A000D09375300034110569F480917630909186
:1043B00077308C0F9D1F209117333091183382175F
:1043C000930780F0E1E1F3E3C287D3870684F785A2
:1043D000E02D309729F01995811102C0B1D834C071
:1043E000BDD832C080911B3390911C33C817D907B8
:1043F000F9F4E0911F33F0912033309711F4A0D8F5
:1044000023C01995811102C09BD81EC0209176301F
:10441000309177308091743090917530820F931F76
:10442000809376309093773010927430109275307C
:10443000E0E9F0E302E0069300E2069305C080386D
:1044400011F4A2D801C0C1D9FF91EF91DF91CF91B2
:10445000BF91AF919F918F917F916F915F914F919C
:104460003F912F911F910F910F900BBE0F900ABE9D
:104470000F9009BE0F9008BE0F900FBE0F901F90B7
:10448000189563E080E890E00E94B730E0E8F0E043
:10449000828180FDFDCF6BE281E890E00E94B73021
:1044A000E0E8F0E0828180FDFDCFA895FFCF1F926C
:1044B0000F920FB60F92112408B60F9218BE09B6CC
:1044C0000F9219BE0BB60F921BBE2F933F934F93C3
:1044D0005F936F937F938F939F93AF93BF93EF936C
:1044E000FF934091240250912502E0912933F091ED
:1044F0002A3361E080E092E01995FF91EF91BF913E
:10450000AF919F918F917F916F915F914F913F916B
:104510002F910F900BBE0F9009BE0F9008BE0F9009
:104520000FBE0F901F9018951F920F920FB60F920B
:10453000112408B60F9218BE09B60F9219BE0BB619
:104540000F921BBE2F933F934F935F936F937F9375
:104550008F939F93AF93BF93EF93FF9340912C0260
:1045600050912D02E0912933F0912A3362E080E0EE
:1045700092E01995FF91EF91BF91AF919F918F912B
:104580007F916F915F914F913F912F910F900BBE53
:104590000F9009BE0F9008BE0F900FBE0F901F9096
:1045A00018951F920F920FB60F92112408B60F9212
:1045B00018BE09B60F9219BE0BB60F921BBE2F93F1
:1045C0003F934F935F936F937F938F939F93AF939B
:1045D000BF93EF93FF934091340250913502E091E5
:1045E0002933F0912A3364E080E092E01995FF913D
:1045F000EF91BF91AF919F918F917F916F915F915B
:104600004F913F912F910F900BBE0F9009BE0F90CD
:1046100008BE0F900FBE0F901F9018951F920F921B
:104620000FB60F92112408B60F9218BE09B60F925A
:1046300019BE0BB60F921BBE2F933F934F935F9300
:104640006F937F938F939F93AF93BF93EF93FF935A
:1046500040913C0250913D02E0912933F0912A3380
:1046600068E080E092E01995FF91EF91BF91AF91E2
:104670009F918F917F916F915F914F913F912F917A
:104680000F900BBE0F9009BE0F9008BE0F900FBE8B
:104690000F901F9018951F920F920FB60F92112432
:1046A00008B60F9218BE09B60F9219BE0BB60F923C
:1046B0001BBE2F933F934F935F936F937F938F9383
:1046C0009F93AF93BF93EF93FF93409164025091F8
:1046D0006502E0912733F091283361E080E492E0B5
:1046E0001995FF91EF91BF91AF919F918F917F911C
:1046F0006F915F914F913F912F910F900BBE0F9053
:1047000009BE0F9008BE0F900FBE0F901F90189516
:104710001F920F920FB60F92112408B60F9218BE77
:1047200009B60F9219BE0BB60F921BBE2F933F9383
:104730004F935F936F937F938F939F93AF93BF93A9
:10474000EF93FF9340916C0250916D02E0912733FB
:10475000F091283362E080E492E01995FF91EF91A7
:10476000BF91AF919F918F917F916F915F914F9189
:104770003F912F910F900BBE0F9009BE0F9008BE76
:104780000F900FBE0F901F9018951F920F920FB6AB
:104790000F92112408B60F9218BE09B60F9219BED7
:1047A0000BB60F921BBE2F933F934F935F936F9364
:1047B0007F938F939F93AF93BF93EF93FF9340911A
:1047C000740250917502E0912733F091283364E030
:1047D00080E492E01995FF91EF91BF91AF919F9185
:1047E0008F917F916F915F914F913F912F910F909A
:1047F0000BBE0F9009BE0F9008BE0F900FBE0F901A
:104800001F9018951F920F920FB60F92112408B6A1
:104810000F9218BE09B60F9219BE0BB60F921BBEAF
:104820002F933F934F935F936F937F938F939F93B8
:10483000AF93BF93EF93FF9340917C0250917D0221
:10484000E0912733F091283368E080E492E01995F5
:10485000FF91EF91BF91AF919F918F917F916F9158
:104860005F914F913F912F910F900BBE0F9009BE1A
:104870000F9008BE0F900FBE0F901F901895CF930A
:10488000DF93482F50E0FA017196E295F295F07FA0
:10489000FE27E07FFE27A0E0B1E014969C911497DC
:1048A00013966C91DA01149621E030E0E901082EAC
:1048B00002C0CC0FDD1F0A94E2F70A2E02C0220FBD
:1048C000331F0A94E2F72C2B622370E0EB010A2ECF
:1048D00002C0D595C7950A94E2F7C0FD1AC0082E0C
:1048E00002C0759567950A94E2F760FD14C029230C
:1048F00030E0B90102C075956795AA95E2F760FDB1
:104900000CC002C0359527958A95E2F7822F8170F9
:1049100005C084E003C083E001C082E09181906320
:104920009183440F551FFA01E55DFC4C0190F08125
:10493000E02D309709F01995DF91CF9108951F92DE
:104940000F920FB60F92112408B60F9218BE09B637
:104950000F9219BE0BB60F921BBE2F933F934F932E
:104960005F936F937F938F939F93AF93BF93EF93D7
:10497000FF9380E084DFFF91EF91BF91AF919F9112
:104980008F917F916F915F914F913F912F910F90F8
:104990000BBE0F9009BE0F9008BE0F900FBE0F9078
:1049A0001F9018951F920F920FB60F92112408B600
:1049B0000F9218BE09B60F9219BE0BB60F921BBE0E
:1049C0002F933F934F935F936F937F938F939F9317
:1049D000AF93BF93EF93FF9381E051DFFF91EF918E
:1049E000BF91AF919F918F917F916F915F914F9107
:1049F0003F912F910F900BBE0F9009BE0F9008BEF4
:104A00000F900FBE0F901F9018951F920F920FB628
:104A10000F92112408B60F9218BE09B60F9219BE54
:104A20000BB60F921BBE2F933F934F935F936F93E1
:104A30007F938F939F93AF93BF93EF93FF9382E006
:104A40001EDFFF91EF91BF91AF919F918F917F9169
:104A50006F915F914F913F912F910F900BBE0F90EF
:104A600009BE0F9008BE0F900FBE0F901F901895B3
:104A70001F920F920FB60F92112408B60F9218BE14
:104A800009B60F9219BE0BB60F921BBE2F933F9320
:104A90004F935F936F937F938F939F93AF93BF9346
:104AA000EF93FF9383E0EBDEFF91EF91BF91AF9126
:104AB0009F918F917F916F915F914F913F912F9136
:104AC0000F900BBE0F9009BE0F9008BE0F900FBE47
:104AD0000F901F9018951F920F920FB60F921124EE
:104AE00008B60F9218BE09B60F9219BE0BB60F92F8
:104AF0001BBE2F933F934F935F936F937F938F933F
:104B00009F93AF93BF93EF93FF93E0911F31F09189
:104B10002031309709F01995FF91EF91BF91AF9136
:104B20009F918F917F916F915F914F913F912F91C5
:104B30000F900BBE0F9009BE0F9008BE0F900FBED6
:104B40000F901F9018951F920F920FB60F9211247D
:104B500008B60F9218BE09B60F9219BE0BB60F9287
:104B60001BBE2F933F934F935F936F937F938F93CE
:104B70009F93AF93BF93EF93FF93E0911D31F0911B
:104B80001E31309709F01995FF91EF91BF91AF91C8
:104B90009F918F917F916F915F914F913F912F9155
:104BA0000F900BBE0F9009BE0F9008BE0F900FBE66
:104BB0000F901F9018951F920F920FB60F9211240D
:104BC00008B60F9218BE09B60F9219BE0BB60F9217
:104BD0001BBE2F933F934F935F936F937F938F935E
:104BE0009F93AF93BF93EF93FF93E0911B31F091AD
:104BF0001C31309709F01995FF91EF91BF91AF915A
:104C00009F918F917F916F915F914F913F912F91E4
:104C10000F900BBE0F9009BE0F9008BE0F900FBEF5
:104C20000F901F9018951F920F920FB60F9211249C
:104C300008B60F9218BE09B60F9219BE0BB60F92A6
:104C40001BBE2F933F934F935F936F937F938F93ED
:104C50009F93AF93BF93EF93FF93E0911931F0913E
:104C60001A31309709F01995FF91EF91BF91AF91EB
:104C70009F918F917F916F915F914F913F912F9174
:104C80000F900BBE0F9009BE0F9008BE0F900FBE85
:104C90000F901F9018951F920F920FB60F9211242C
:104CA00008B60F9218BE09B60F9219BE0BB60F9236
:104CB0001BBE2F933F934F935F936F937F938F937D
:104CC0009F93AF93BF93EF93FF93E0911731F091D0
:104CD0001831309709F01995FF91EF91BF91AF917D
:104CE0009F918F917F916F915F914F913F912F9104
:104CF0000F900BBE0F9009BE0F9008BE0F900FBE15
:104D00000F901F9018951F920F920FB60F921124BB
:104D100008B60F9218BE09B60F9219BE0BB60F92C5
:104D20001BBE2F933F934F935F936F937F938F930C
:104D30009F93AF93BF93EF93FF93E0911531F09161
:104D40001631309709F01995FF91EF91BF91AF910E
:104D50009F918F917F916F915F914F913F912F9193
:104D60000F900BBE0F9009BE0F9008BE0F900FBEA4
:104D70000F901F9018951F920F920FB60F9211244B
:104D800008B60F9218BE09B60F9219BE0BB60F9255
:104D90001BBE2F933F934F935F936F937F938F939C
:104DA0009F93AF93BF93EF93FF93E0911331F091F3
:104DB0001431309709F01995FF91EF91BF91AF91A0
:104DC0009F918F917F916F915F914F913F912F9123
:104DD0000F900BBE0F9009BE0F9008BE0F900FBE34
:104DE0000F901F9018951F920F920FB60F921124DB
:104DF00008B60F9218BE09B60F9219BE0BB60F92E5
:104E00001BBE2F933F934F935F936F937F938F932B
:104E10009F93AF93BF93EF93FF93E0911131F09184
:104E20001231309709F01995FF91EF91BF91AF9131
:104E30009F918F917F916F915F914F913F912F91B2
:104E40000F900BBE0F9009BE0F9008BE0F900FBEC3
:104E50000F901F9018951F920F920FB60F9211246A
:104E600008B60F9218BE09B60F9219BE0BB60F9274
:104E70001BBE2F933F934F935F936F937F938F93BB
:104E80009F93AF93BF93EF93FF93E0910F31F09116
:104E90001031309709F01995FF91EF91BF91AF91C3
:104EA0009F918F917F916F915F914F913F912F9142
:104EB0000F900BBE0F9009BE0F9008BE0F900FBE53
:104EC0000F901F9018951F920F920FB60F921124FA
:104ED00008B60F9218BE09B60F9219BE0BB60F9204
:104EE0001BBE2F933F934F935F936F937F938F934B
:104EF0009F93AF93BF93EF93FF93E0910D31F091A8
:104F00000E31309709F01995FF91EF91BF91AF9154
:104F10009F918F917F916F915F914F913F912F91D1
:104F20000F900BBE0F9009BE0F9008BE0F900FBEE2
:104F30000F901F9018951F920F920FB60F92112489
:104F400008B60F9218BE09B60F9219BE0BB60F9293
:104F50001BBE2F933F934F935F936F937F938F93DA
:104F60009F93AF93BF93EF93FF93E0910B31F09139
:104F70000C31309709F01995FF91EF91BF91AF91E6
:104F80009F918F917F916F915F914F913F912F9161
:104F90000F900BBE0F9009BE0F9008BE0F900FBE72
:104FA0000F901F9018951F920F920FB60F92112419
:104FB00008B60F9218BE09B60F9219BE0BB60F9223
:104FC0001BBE2F933F934F935F936F937F938F936A
:104FD0009F93AF93BF93EF93FF93E0910931F091CB
:104FE0000A31309709F01995FF91EF91BF91AF9178
:104FF0009F918F917F916F915F914F913F912F91F1
:105000000F900BBE0F9009BE0F9008BE0F900FBE01
:105010000F901F9018951F920F920FB60F921124A8
:1050200008B60F9218BE09B60F9219BE0BB60F92B2
:105030001BBE2F933F934F935F936F937F938F93F9
:105040009F93AF93BF93EF93FF93E0910731F0915C
:105050000831309709F01995FF91EF91BF91AF9109
:105060009F918F917F916F915F914F913F912F9180
:105070000F900BBE0F9009BE0F9008BE0F900FBE91
:105080000F901F9018951F920F920FB60F92112438
:1050900008B60F9218BE09B60F9219BE0BB60F9242
:1050A0001BBE2F933F934F935F936F937F938F9389
:1050B0009F93AF93BF93EF93FF93E0910531F091EE
:1050C0000631309709F01995FF91EF91BF91AF919B
:1050D0009F918F917F916F915F914F913F912F9110
:1050E0000F900BBE0F9009BE0F9008BE0F900FBE21
:1050F0000F901F9018951F920F920FB60F921124C8
:1051000008B60F9218BE09B60F9219BE0BB60F92D1
:105110001BBE2F933F934F935F936F937F938F9318
:105120009F93AF93BF93EF93FF93E0910331F0917F
:105130000431309709F01995FF91EF91BF91AF912C
:105140009F918F917F916F915F914F913F912F919F
:105150000F900BBE0F9009BE0F9008BE0F900FBEB0
:105160000F901F9018951F920F920FB60F92112457
:1051700008B60F9218BE09B60F9219BE0BB60F9261
:105180001BBE2F933F934F935F936F937F938F93A8
:105190009F93AF93BF93EF93FF93E0910131F09111
:1051A0000231309709F01995FF91EF91BF91AF91BE
:1051B0009F918F917F916F915F914F913F912F912F
:1051C0000F900BBE0F9009BE0F9008BE0F900FBE40
:1051D0000F901F9018951F920F920FB60F921124E7
:1051E00008B60F9218BE09B60F9219BE0BB60F92F1
:1051F0001BBE2F933F934F935F936F937F938F9338
:105200009F93AF93BF93EF93FF93E091FF30F091A3
:105210000031309709F01995FF91EF91BF91AF914F
:105220009F918F917F916F915F914F913F912F91BE
:105230000F900BBE0F9009BE0F9008BE0F900FBECF
:105240000F901F9018951F920F920FB60F92112476
:1052500008B60F9218BE09B60F9219BE0BB60F9280
:105260001BBE2F933F934F935F936F937F938F93C7
:105270009F93AF93BF93EF93FF93E091FD30F09135
:10528000FE30309709F01995FF91EF91BF91AF91E2
:105290009F918F917F916F915F914F913F912F914E
:1052A0000F900BBE0F9009BE0F9008BE0F900FBE5F
:1052B0000F901F9018951F920F920FB60F92112406
:1052C00008B60F9218BE09B60F9219BE0BB60F9210
:1052D0001BBE2F933F934F935F936F937F938F9357
:1052E0009F93AF93BF93EF93FF93E091FB30F091C7
:1052F000FC30309709F01995FF91EF91BF91AF9174
:105300009F918F917F916F915F914F913F912F91DD
:105310000F900BBE0F9009BE0F9008BE0F900FBEEE
:105320000F901F9018951F920F920FB60F92112495
:1053300008B60F9218BE09B60F9219BE0BB60F929F
:105340001BBE2F933F934F935F936F937F938F93E6
:105350009F93AF93BF93EF93FF93E091F930F09158
:10536000FA30309709F01995FF91EF91BF91AF9105
:105370009F918F917F916F915F914F913F912F916D
:105380000F900BBE0F9009BE0F9008BE0F900FBE7E
:105390000F901F9018951F920F920FB60F92112425
:1053A00008B60F9218BE09B60F9219BE0BB60F922F
:1053B0001BBE2F933F934F935F936F937F938F9376
:1053C0009F93AF93BF93EF93FF93E091F730F091EA
:1053D000F830309709F01995FF91EF91BF91AF9197
:1053E0009F918F917F916F915F914F913F912F91FD
:1053F0000F900BBE0F9009BE0F9008BE0F900FBE0E
:105400000F901F9018951F920F920FB60F921124B4
:1054100008B60F9218BE09B60F9219BE0BB60F92BE
:105420001BBE2F933F934F935F936F937F938F9305
:105430009F93AF93BF93EF93FF93E091F530F0917B
:10544000F630309709F01995FF91EF91BF91AF9128
:105450009F918F917F916F915F914F913F912F918C
:105460000F900BBE0F9009BE0F9008BE0F900FBE9D
:105470000F901F9018951F920F920FB60F92112444
:1054800008B60F9218BE09B60F9219BE0BB60F924E
:105490001BBE2F933F934F935F936F937F938F9395
:1054A0009F93AF93BF93EF93FF93E091F330F0910D
:1054B000F430309709F01995FF91EF91BF91AF91BA
:1054C0009F918F917F916F915F914F913F912F911C
:1054D0000F900BBE0F9009BE0F9008BE0F900FBE2D
:1054E0000F901F9018951F920F920FB60F921124D4
:1054F00008B60F9218BE09B60F9219BE0BB60F92DE
:105500001BBE2F933F934F935F936F937F938F9324
:105510009F93AF93BF93EF93FF93E091F130F0919E
:10552000F230309709F01995FF91EF91BF91AF914B
:105530009F918F917F916F915F914F913F912F91AB
:105540000F900BBE0F9009BE0F9008BE0F900FBEBC
:105550000F901F9018951F920F920FB60F92112463
:1055600008B60F9218BE09B60F9219BE0BB60F926D
:105570001BBE2F933F934F935F936F937F938F93B4
:105580009F93AF93BF93EF93FF93E091EF30F09130
:10559000F030309709F01995FF91EF91BF91AF91DD
:1055A0009F918F917F916F915F914F913F912F913B
:1055B0000F900BBE0F9009BE0F9008BE0F900FBE4C
:1055C0000F901F9018951F920F920FB60F921124F3
:1055D00008B60F9218BE09B60F9219BE0BB60F92FD
:1055E0001BBE2F933F934F935F936F937F938F9344
:1055F0009F93AF93BF93EF93FF93E091ED30F091C2
:10560000EE30309709F01995FF91EF91BF91AF916E
:105610009F918F917F916F915F914F913F912F91CA
:105620000F900BBE0F9009BE0F9008BE0F900FBEDB
:105630000F901F9018951F920F920FB60F92112482
:1056400008B60F9218BE09B60F9219BE0BB60F928C
:105650001BBE2F933F934F935F936F937F938F93D3
:105660009F93AF93BF93EF93FF93E091EB30F09153
:10567000EC30309709F01995FF91EF91BF91AF9100
:105680009F918F917F916F915F914F913F912F915A
:105690000F900BBE0F9009BE0F9008BE0F900FBE6B
:1056A0000F901F9018951F920F920FB60F92112412
:1056B00008B60F9218BE09B60F9219BE0BB60F921C
:1056C0001BBE2F933F934F935F936F937F938F9363
:1056D0009F93AF93BF93EF93FF93E091E930F091E5
:1056E000EA30309709F01995FF91EF91BF91AF9192
:1056F0009F918F917F916F915F914F913F912F91EA
:105700000F900BBE0F9009BE0F9008BE0F900FBEFA
:105710000F901F9018951F920F920FB60F921124A1
:1057200008B60F9218BE09B60F9219BE0BB60F92AB
:105730001BBE2F933F934F935F936F937F938F93F2
:105740009F93AF93BF93EF93FF93E091E730F09176
:10575000E830309709F01995FF91EF91BF91AF9123
:105760009F918F917F916F915F914F913F912F9179
:105770000F900BBE0F9009BE0F9008BE0F900FBE8A
:105780000F901F9018951F920F920FB60F92112431
:1057900008B60F9218BE09B60F9219BE0BB60F923B
:1057A0001BBE2F933F934F935F936F937F938F9382
:1057B0009F93AF93BF93EF93FF93E091E530F09108
:1057C000E630309709F01995FF91EF91BF91AF91B5
:1057D0009F918F917F916F915F914F913F912F9109
:1057E0000F900BBE0F9009BE0F9008BE0F900FBE1A
:1057F0000F901F9018951F920F920FB60F921124C1
:1058000008B60F9218BE09B60F9219BE0BB60F92CA
:105810001BBE2F933F934F935F936F937F938F9311
:105820009F93AF93BF93EF93FF93E091E330F09199
:10583000E430309709F01995FF91EF91BF91AF9146
:105840009F918F917F916F915F914F913F912F9198
:105850000F900BBE0F9009BE0F9008BE0F900FBEA9
:105860000F901F9018951F920F920FB60F92112450
:1058700008B60F9218BE09B60F9219BE0BB60F925A
:105880001BBE2F933F934F935F936F937F938F93A1
:105890009F93AF93BF93EF93FF93E091E130F0912B
:1058A000E230309709F01995FF91EF91BF91AF91D8
:1058B0009F918F917F916F915F914F913F912F9128
:1058C0000F900BBE0F9009BE0F9008BE0F900FBE39
:1058D0000F901F9018951F920F920FB60F921124E0
:1058E00008B60F9218BE09B60F9219BE0BB60F92EA
:1058F0001BBE2F933F934F935F936F937F938F9331
:105900009F93AF93BF93EF93FF93E091DF30F091BC
:10591000E030309709F01995FF91EF91BF91AF9169
:105920009F918F917F916F915F914F913F912F91B7
:105930000F900BBE0F9009BE0F9008BE0F900FBEC8
:105940000F901F9018951F920F920FB60F9211246F
:1059500008B60F9218BE09B60F9219BE0BB60F9279
:105960001BBE2F933F934F935F936F937F938F93C0
:105970009F93AF93BF93EF93FF93E091DD30F0914E
:10598000DE30309709F01995FF91EF91BF91AF91FB
:105990009F918F917F916F915F914F913F912F9147
:1059A0000F900BBE0F9009BE0F9008BE0F900FBE58
:1059B0000F901F9018951F920F920FB60F921124FF
:1059C00008B60F9218BE09B60F9219BE0BB60F9209
:1059D0001BBE2F933F934F935F936F937F938F9350
:1059E0009F93AF93BF93EF93FF93E091DB30F091E0
:1059F000DC30309709F01995FF91EF91BF91AF918D
:105A00009F918F917F916F915F914F913F912F91D6
:105A10000F900BBE0F9009BE0F9008BE0F900FBEE7
:105A20000F901F9018951F920F920FB60F9211248E
:105A300008B60F9218BE09B60F9219BE0BB60F9298
:105A40001BBE2F933F934F935F936F937F938F93DF
:105A50009F93AF93BF93EF93FF93E091D930F09171
:105A6000DA30309709F01995FF91EF91BF91AF911E
:105A70009F918F917F916F915F914F913F912F9166
:105A80000F900BBE0F9009BE0F9008BE0F900FBE77
:105A90000F901F9018951F920F920FB60F9211241E
:105AA00008B60F9218BE09B60F9219BE0BB60F9228
:105AB0001BBE2F933F934F935F936F937F938F936F
:105AC0009F93AF93BF93EF93FF93E091D730F09103
:105AD000D830309709F01995FF91EF91BF91AF91B0
